:100000000C9462000C948A000C948A000C948A0070
:100010000C948A000C948A000C948A000C948A0038
:100020000C948A000C948A000C948A000C948A0028
:100030000C948A000C948A000C948A000C948A0018
:100040000C9448040C948A000C948A000C948A0046
:100050000C948A000C948A000C948A000C948A00F8
:100060000C948A000C948A000000000023002600F3
:10007000290000000008000201000003040700003E
:1000800000000000000000000000250028002B00F8
:1000900000000000240027002A00040404040404D3
:1000A0000404020202020202030303030303010227
:1000B00004081020408001020408102001020408F6
:1000C0001020300711241FBECFEFD8E0DEBFCDBF18
:1000D00011E0A0E0B1E0E4E7F3E102C005900D9289
:1000E000A236B107D9F721E0A2E6B1E001C01D9226
:1000F000AD3AB207E1F710E0C2E6D0E004C02197C4
:10010000FE010E94AD09C136D107C9F70E949204D1
:100110000C94B8090C94000090E0FC01E255FF4FEC
:100120002491FC01E656FF4F8491882399F090E0DA
:10013000880F991FFC01E057FF4FA591B491FC0176
:10014000EA57FF4F859194918FB7F894EC91E22B89
:10015000EC938FBF0895E0919501F0919601019085
:10016000F081E02D682F85E991E00994CF92DF922C
:10017000EF92FF920F931F93CF93DF936C017A015D
:100180008B01C0E0D0E0CE15DF0589F0D8016D917C
:100190008D01D601ED91FC910190F081E02DC60119
:1001A0000995892B11F47E0102C02196ECCFC7017D
:1001B000DF91CF911F910F91FF90EF90DF90CF9043
:1001C0000895833081F028F4813099F08230A1F0D5
:1001D00008958730A9F08830B9F08430D1F4809147
:1001E00080008F7D03C0809180008F778093800096
:1001F000089584B58F7702C084B58F7D84BD08953E
:100200008091B0008F7703C08091B0008F7D809384
:10021000B0000895CF93DF93282F30E0F901EE5816
:10022000FF4F8491F901E255FF4FD491F901E65651
:10023000FF4FC491CC2391F081110E94E100EC2F7B
:10024000F0E0EE0FFF1FE859FF4FA591B491EC913C
:10025000ED2381E090E021F480E002C080E090E0B6
:10026000DF91CF9108951F93CF93DF93282F30E034
:10027000F901EE58FF4F8491F901E255FF4FD491F7
:10028000F901E656FF4FC491CC23C9F0162F811116
:100290000E94E100EC2FF0E0EE0FFF1FEA57FF4F46
:1002A000A591B4918FB7F894111105C09C91ED2FD1
:1002B000E095E92302C0EC91ED2BEC938FBFDF9129
:1002C000CF911F9108958E3008F08E508770806412
:1002D00080937C0080917A00806480937A00809182
:1002E0007A0086FDFCCF809178002091790090E023
:1002F000922B08953FB7F894809163019091640127
:10030000A0916501B091660126B5A89B05C02F3F5D
:1003100019F00196A11DB11D3FBFBA2FA92F982F2B
:100320008827820F911DA11DB11DBC01CD0142E0A6
:10033000660F771F881F991F4A95D1F708958F92EE
:100340009F92AF92BF92CF92DF92EF92FF926B019A
:100350007C010E947A014B015C01C114D104E104CB
:10036000F104F1F00E947A01DC01CB0188199909AE
:10037000AA09BB09883E9340A105B10570F321E0AD
:10038000C21AD108E108F10888EE880E83E0981EB1
:10039000A11CB11CC114D104E104F10419F7DDCF93
:1003A000FF90EF90DF90CF90BF90AF909F908F9095
:1003B0000895CF93DF93EC0160E08E810E943301BA
:1003C00061E08E810E94330160E08E810E943301E2
:1003D0008BE891E00197F1F7DF91CF910895CF92EB
:1003E000DF92EF92FF920F931F93CF93DF937C01E5
:1003F0006C0187E0C80ED11CC0E0D0E0062F10E0F1
:10040000B8010C2E02C0759567950A94E2F76170E9
:10041000F60181916F010E9433012196C430D1050C
:1004200079F7C701DF91CF911F910F91FF90EF9066
:10043000DF90CF900C94D901CF92DF92EF92FF9290
:100440000F931F93CF93DF93EC01F62E642F8C81D3
:100450000E9433018D818F3F19F060E00E943301CB
:100460008F850F2D10E084FF25C06E0187E0C80E38
:10047000D11CE12CF12CB8010E2C02C075956795AA
:100480000A94E2F76170F60181916F010E943301D5
:10049000FFEFEF1AFF0A88E0E816F10461F7CE01DA
:1004A000DF91CF911F910F91FF90EF90DF90CF9050
:1004B0000C94D901B80184E0759567958A95E1F7A8
:1004C000CE010E94EF016F2DCE01DF91CF911F91E0
:1004D0000F91FF90EF90DF90CF900C94EF0141E0EF
:1004E0000E941C0281E090E0089540E00C941C0200
:1004F000643008F063E09091A801691710F06FEF85
:10050000690FE62FF0E0EB56FE4F9489682F690FD4
:10051000606885E991E00C94750261E00E947502C3
:100520008BE39FE10197F1F70895EF92FF920F930C
:100530001F93CF93DF93EC01623018F08F858860B2
:100540008F876B8B1C8A80E48D8B80E18E8B80E59E
:100550008F8B8C810E948C008D818F3F11F00E94C7
:100560008C008E810E948C007E0187E0E80EF11CD9
:1005700000E010E08F8584FD03C084E090E002C0BD
:1005800088E090E00817190744F4F70181917F0192
:100590000E948C000F5F1F4FEDCF8BE39DE0019712
:1005A000F1F760E08C810E94330160E08E810E944F
:1005B00033018D818F3F19F060E00E9433016F8518
:1005C00064FD1DC063E0CE010E94EF010BE416E460
:1005D000C8010197F1F763E0CE010E94EF01C80165
:1005E0000197F1F763E0CE010E94EF0183E592E00D
:1005F0000197F1F762E0CE010E94EF0116C0606240
:10060000CE010E9475028BE496E40197F1F76F85A5
:100610006062CE010E94750283E592E00197F1F7D6
:100620006F856062CE010E9475026F856062CE01A7
:100630000E94750284E0888B6CE0CE010E947502F6
:10064000CE010E948D0282E0898B66E0CE01DF91AF
:10065000CF911F910F91FF90EF900C94750200972E
:1006600069F0FC0101900020E9F73197AF01481BC8
:10067000590BBC0185E991E00C94B60080E090E054
:1006800008958F929F92AF92BF920F931F93CF9333
:10069000DF93CDB7DEB7A1970FB6F894DEBF0FBEDC
:1006A000CDBF19A2423008F44AE08E010F5D1F4F02
:1006B000842E912CA12CB12CA50194010E948B09B0
:1006C000E62FB901CA0101501109EA3014F4E05DC6
:1006D00001C0E95CD801EC93232B242B252B61F777
:1006E000C8010E942F03A1960FB6F894DEBF0FBE7B
:1006F000CDBFDF91CF911F910F91BF90AF909F9091
:100700008F9008958F929F92AF92BF92CF92DF9277
:10071000EF92FF92CF93DF936B017C019B01AC01C1
:100720000E948609882319F080E191E027C04601E4
:100730005701E894B7F82FEF3FEF4FE75FE7C501A8
:10074000B4010E94860981110DC02FEF3FEF4FE7E2
:100750005FE7C501B4010E94BC0718161CF484E1D0
:1007600091E00CC02FEF3FEF4FE75FE4C701B60108
:100770000E941409181674F488E191E0DF91CF917A
:10078000FF90EF90DF90CF90BF90AF909F908F90B1
:100790000C942F032FEF3FEF4FE75FECC701B6013B
:1007A0000E94BC0787FDE8CF20E030E0A901C70127
:1007B000B6010E94BC0787FF09C08DE20E94AB0012
:1007C000EC01F7FAF094F7F8F09402C0C0E0D0E042
:1007D0002AE037ED43EA5BE3C701B6010E94500708
:1007E0004B015C010E9433086B017C010E9462088E
:1007F0009B01AC01C501B4010E944F074B015C0194
:100800004AE0C701B6010E944103C80FD91F8EE21A
:100810000E94AB00C80FD91F20E030E040E251E455
:10082000C501B4010E9419094B015C010E94330803
:100830006B01E12CF12C4AE0C701B6010E94410393
:10084000C80FD91FC701B6010E9462089B01AC0105
:10085000C501B4010E944F0720E030E040E251E4BE
:100860000E9419090E94330880E090E04AE00E944B
:1008700041038C0F9D1FDF91CF91FF90EF90DF9090
:10088000CF90BF90AF909F908F9008950E94B30932
:100890001F920F920FB60F9211242F933F938F93B5
:1008A0009F93AF93BF938091670190916801A0914E
:1008B0006901B0916A013091620123E0230F2D3765
:1008C00020F40196A11DB11D05C026E8230F029654
:1008D000A11DB11D2093620180936701909368016F
:1008E000A0936901B0936A018091630190916401C2
:1008F000A0916501B09166010196A11DB11D809383
:10090000630190936401A0936501B0936601BF9168
:10091000AF919F918F913F912F910F900FBE0F90AC
:100920001F901895CF93DF9300D000D0CDB7DEB7DE
:10093000789484B5826084BD84B5816084BD85B5BA
:10094000826085BD85B5816085BD80916E008160C6
:1009500080936E001092810080918100826080936C
:10096000810080918100816080938100809180006E
:100970008160809380008091B10084608093B10099
:100980008091B00081608093B00080917A00846093
:1009900080937A0080917A00826080937A008091BF
:1009A0007A00816080937A0080917A0080688093D9
:1009B0007A001092C10085E00E948C0084E00E94C1
:1009C0008C0083E00E948C0082E00E948C0062E038
:1009D00085E991E00E94950260E083E00E94780240
:1009E0008CE191E00E942F0361E08EE00E9478028A
:1009F00083E391E00E942F0381E090E090939401C3
:100A00008093930100919301109194010F3011058F
:100A100094F468E185E991E00E94750266E970E06E
:100A200080E090E00E949F010F5F1F4F10939401A0
:100A300000939301E7CF85E991E00E948D0260E089
:100A400081E00E9478028CE391E00E942F0361E034
:100A500082E00E9478028CE491E00E942F0381E002
:100A600090E09093940180939301009193011091F1
:100A70009401033011050CF03FC061E084E00E9456
:100A800033016AEF70E080E090E00E949F0160E037
:100A900084E00E94330161E083E00E9433016AEF49
:100AA00070E080E090E00E949F0160E083E00E949F
:100AB000330161E082E00E9433016AEF70E080E080
:100AC00090E00E949F0160E082E00E94330161E0BB
:100AD00085E00E94330169E170E080E090E00E94CF
:100AE0009F0160E085E00E9433010F5F1F4F10936C
:100AF000940100939301B9CF60E485E991E00E94ED
:100B0000750200E011E0F80161918F0185E991E043
:100B10000E946F02F1E008301F07A9F780E6882ED7
:100B20008AEE982EA12CB12C90E0692E90E0792EBF
:100B300001E010E01093940100939301E090930181
:100B4000F0909401E3E0EE16F104E4F461E083E058
:100B50000E9433016AE070E080E090E00E949F0113
:100B600060E083E00E94330164E670E080E090E0A2
:100B70000E949F018FEFE81AF80AF0929401E09228
:100B80009301DCCF85E991E00E948D028EE00E9406
:100B900063019093920180939101BC01990F880B9E
:100BA000990B0E94640820E030E040E85AE30E947C
:100BB000190920E030E44CE955E40E9419096093DA
:100BC0008D0170938E0180938F019093900120E0AE
:100BD00030E040E251E40E94C1076B017C01609368
:100BE000890170938A0180938B0190938C0161E05D
:100BF0008AE00E947802C701B6010E94820360E089
:100C000085E991E00E946F028FE00E94630190935A
:100C1000880180938701BC01990F880B990B0E9472
:100C2000640820E030E040EA50E40E94190920E026
:100C300030E040E85AE30E94190960938301709301
:100C4000840180938501909386012DEC3CEC4CE46B
:100C50005EE30E94C1076B017C0160937F0170938A
:100C60008001809381019093820160E080E00E9486
:100C70007802C701B6010E94820389E591E00E94D3
:100C80002F0381E10E94630190937E0180937D0197
:100C9000BC01990F880B990B0E94640820E030E09A
:100CA00040E85AE30E94190920E030E44CE955E499
:100CB0000E9419096093790170937A0180937B01F6
:100CC00090937C0120E030E44CE155E40E944F0712
:100CD00020E030E049E353E40E94C10720E030E027
:100CE0004AE754E40E9419096B017C0120E030E0DE
:100CF000A9010E941409181624F0F7FAF094F7F8E5
:100D0000F094C0927501D0927601E0927701F09252
:100D1000780160E088E00E947802C701B6010E9475
:100D200082038BE591E00E942F0361E082E00E9444
:100D300033012FB7F8948091670190916801A091D9
:100D40006901B0916A012FBF809371019093720184
:100D5000A0937301B093740188E00E940A01892B6B
:100D6000D9F360E082E00E9433012FB7F8948091BC
:100D7000670190916801A0916901B0916A012FBF4C
:100D80008093710190937201A0937301B0937401E9
:100D90006AE070E080E090E00E949F0161E082E004
:100DA0000E94330188E00E940A01892BD9F360E098
:100DB00082E00E9433018FB7F8944091670150910F
:100DC00068016091690170916A018FBF40936D0164
:100DD00050936E0160936F01709370018091710167
:100DE00090917201A0917301B09174019A01AB01CD
:100DF000281B390B4A0B5B0BC501B4010E948B0900
:100E000030936C0120936B0161E080E029833A8389
:100E10004B835C830E94780229813A816901330FF8
:100E2000EE08FF08F7FE0CC08DE20E94AB006627BB
:100E30007727CB016C197D098E099F094AE003C011
:100E40004AE0C701B6010E9441038EE591E00E948D
:100E50002F036114710409F46DCE0E9400006ACE64
:100E6000E5E9F1E0138212828CE091E091838083C6
:100E70008CE084838FEF85838BE086838AE0878391
:100E800089E0808787E0818786E0828713861486E1
:100E900015861686178661E0CF010C94950250588E
:100EA000BB27AA270E9467070C94DA080E94CC0887
:100EB00038F00E94D30820F039F49F3F19F426F44B
:100EC0000C94C9080EF4E095E7FB0C94C308E92FD5
:100ED0000E94EB0858F3BA17620773078407950757
:100EE00020F079F4A6F50C940D090EF4E0950B2E84
:100EF000BA2FA02D0B01B90190010C01CA01A0016C
:100F00001124FF27591B99F0593F50F4503E68F1C6
:100F10001A16F040A22F232F342F4427585FF3CF07
:100F2000469537952795A795F0405395C9F77EF4D8
:100F30001F16BA0B620B730B840BBAF09150A1F021
:100F4000FF0FBB1F661F771F881FC2F70EC0BA0FA7
:100F5000621F731F841F48F4879577956795B7952F
:100F6000F7959E3F08F0B0CF9395880F08F099272A
:100F7000EE0F9795879508950E949F0808F481E0E9
:100F800008950E94D5070C94DA080E94D30858F0FF
:100F90000E94CC0840F029F45F3F29F00C94C3086C
:100FA00051110C940E090C94C9080E94EB0868F3C7
:100FB0009923B1F3552391F3951B550BBB27AA2712
:100FC00062177307840738F09F5F5F4F220F331F4C
:100FD000441FAA1FA9F335D00E2E3AF0E0E832D014
:100FE00091505040E695001CCAF72BD0FE2F29D017
:100FF000660F771F881FBB1F261737074807AB07E9
:10100000B0E809F0BB0B802DBF01FF2793585F4F5D
:101010003AF09E3F510578F00C94C3080C940E09E9
:101020005F3FE4F3983ED4F3869577956795B7953F
:10103000F7959F5FC9F7880F911D9695879597F94A
:101040000895E1E0660F771F881FBB1F62177307C3
:101050008407BA0720F0621B730B840BBA0BEE1FD8
:1010600088F7E09508950E94F30888F09F5798F05C
:10107000B92F9927B751B0F0E1F0660F771F881F9D
:10108000991F1AF0BA95C9F714C0B13091F00E94B7
:101090000D09B1E008950C940D09672F782F88276A
:1010A000B85F39F0B93FCCF3869577956795B395DE
:1010B000D9F73EF490958095709561957F4F8F4F4D
:1010C0009F4F0895E89409C097FB3EF49095809552
:1010D000709561957F4F8F4F9F4F9923A9F0F92FFE
:1010E00096E9BB279395F695879577956795B7957C
:1010F000F111F8CFFAF4BB0F11F460FF1BC06F5F62
:101100007F4F8F4F9F4F16C0882311F096E911C073
:10111000772321F09EE8872F762F05C0662371F094
:1011200096E8862F70E060E02AF09A95660F771FA8
:10113000881FDAF7880F9695879597F90895990F84
:101140000008550FAA0BE0E8FEEF16161706E80791
:10115000F907C0F012161306E407F50798F0621BB2
:10116000730B840B950B39F40A2661F0232B242B87
:10117000252B21F408950A2609F4A140A6958FEFA6
:10118000811D811D089597F99F6780E870E060E0F8
:1011900008959FEF80EC089500240A941616170610
:1011A00018060906089500240A9412161306140658
:1011B00005060895092E0394000C11F4882352F0BB
:1011C000BB0F40F4BF2B11F460FF04C06F5F7F4F73
:1011D0008F4F9F4F089557FD9058440F551F59F05A
:1011E0005F3F71F04795880F97FB991F61F09F3F14
:1011F00079F087950895121613061406551FF2CF3D
:101200004695F1DF08C0161617061806991FF1CF8C
:1012100086957105610508940895E894BB276627B3
:101220007727CB0197F908950E949F0808F48FEF64
:1012300008950E942C090C94DA080E94CC0838F01A
:101240000E94D30820F0952311F00C94C3080C944D
:10125000C90811240C940E090E94EB0870F3959FA5
:10126000C1F3950F50E0551F629FF001729FBB279D
:10127000F00DB11D639FAA27F00DB11DAA1F649F39
:101280006627B00DA11D661F829F2227B00DA11DEC
:10129000621F739FB00DA11D621F839FA00D611D72
:1012A000221F749F3327A00D611D231F849F600D93
:1012B000211D822F762F6A2F11249F5750409AF0BC
:1012C000F1F088234AF0EE0FFF1FBB1F661F771F48
:1012D000881F91505040A9F79E3F510580F00C9413
:1012E000C3080C940E095F3FE4F3983ED4F386954F
:1012F00077956795B795F795E7959F5FC1F7FE2BB3
:10130000880F911D9695879597F908950E949F08DB
:10131000880B990B0895A1E21A2EAA1BBB1BFD0195
:101320000DC0AA1FBB1FEE1FFF1FA217B307E407C4
:10133000F50720F0A21BB30BE40BF50B661F771F1C
:10134000881F991F1A9469F76095709580959095FC
:101350009B01AC01BD01CF010895EE0FFF1F059069
:10136000F491E02D099481E090E0F8940C94B80990
:04137000F894FFCF1F
:10137400181B070C0C0C0703000000006F02B600DA
:101384006E616E00696E66006F766600456C65631B
:1013940074726963616C20506572666F726D616E00
:1013A400636500416E616C7973657200496E69749E
:1013B40069616C697A696E672E2E2E00476C6F77AF
:1013C400696E67204C4544730056006D41005250CD
:0213D4004D00CA
:00000001FF
