:100000000C945D000C9485000C9485000C94850084
:100010000C9485000C9485000C9485000C9485004C
:100020000C9485000C9485000C9485000C9485003C
:100030000C9485000C9485000C9485000C9485002C
:100040000C940D040C9485000C9485000C94850090
:100050000C9485000C9485000C9485000C9485000C
:100060000C9485000C94850000000008000201003B
:100070000003040700000000000000000000000072
:10008000250028002B0000000000240027002A0083
:10009000040404040404040402020202020203032E
:1000A0000303030301020408102040800102040836
:1000B00010200102040810202F0611241FBECFEFCC
:1000C000D8E0DEBFCDBF11E0A0E0B1E0E2E7F1E1B2
:1000D00002C005900D92A236B107D9F721E0A2E641
:1000E000B1E001C01D92AB39B207E1F710E0CDE5F8
:1000F000D0E004C02197FE010E94AC08CC35D107A6
:10010000C9F70E9457040C94B7080C94000090E0C3
:10011000FC01EC55FF4F2491FC01E057FF4F849107
:10012000882399F090E0880F991FFC01EA57FF4F50
:10013000A591B491FC01E458FF4F859194918FB73C
:10014000F894EC91E22BEC938FBF0895E09183013A
:10015000F09184010190F081E02D682F83E891E017
:100160000994CF92DF92EF92FF920F931F93CF9358
:10017000DF936C017A018B01C0E0D0E0CE15DF0582
:1001800089F0D8016D918D01D601ED91FC9101901E
:10019000F081E02DC6010995892B11F47E0102C082
:1001A0002196ECCFC701DF91CF911F910F91FF9066
:1001B000EF90DF90CF90089590E0FC01E859FF4F59
:1001C0003491FC01EC55FF4F2491FC01E057FF4FA7
:1001D000E491EE2309F43BC0332339F1333091F03D
:1001E00038F43130A9F0323001F584B58F7D12C07A
:1001F000373091F03830A1F03430B9F4809180007C
:100200008F7D03C0809180008F77809380000DC028
:1002100084B58F7784BD09C08091B0008F7703C00B
:100220008091B0008F7D8093B000F0E0EE0FFF1F53
:10023000E458FF4FA591B4918FB7F894EC916111F8
:1002400003C020952E2301C02E2B2C938FBF089521
:100250008E3008F08E508770806480937C0080918F
:100260007A00806480937A0080917A0086FDFCCFCA
:10027000809178002091790090E0922B08953FB70B
:10028000F8948091670190916801A0916901B09103
:100290006A0126B5A89B05C02F3F19F00196A11D44
:1002A000B11D3FBFBA2FA92F982F8827820F911D0C
:1002B000A11DB11DBC01CD0142E0660F771F881F53
:1002C000991F4A95D1F708958F929F92AF92BF924E
:1002D000CF92DF92EF92FF926B017C010E943F016F
:1002E0004B015C01C114D104E104F104F1F00E945E
:1002F0003F01DC01CB0188199909AA09BB09883E95
:100300009340A105B10570F321E0C21AD108E108BC
:10031000F10888EE880E83E0981EA11CB11CC11460
:10032000D104E104F10419F7DDCFFF90EF90DF90E5
:10033000CF90BF90AF909F908F900895CF93DF9311
:10034000EC0160E08E810E94DC0061E08E810E9401
:10035000DC0060E08E810E94DC008BE891E0019778
:10036000F1F7DF91CF910895CF92DF92EF92FF9254
:100370000F931F93CF93DF937C016C0187E0C80E2E
:10038000D11CC0E0D0E0062F10E0B8010C2E02C056
:10039000759567950A94E2F76170F60181916F0196
:1003A0000E94DC002196C430D10579F7C701DF91A6
:1003B000CF911F910F91FF90EF90DF90CF900C9411
:1003C0009E01CF92DF92EF92FF920F931F93CF93F4
:1003D000DF93EC01F62E642F8C810E94DC008D816E
:1003E0008F3F19F060E00E94DC008F850F2D10E038
:1003F00084FF25C06E0187E0C80ED11CE12CF12CD2
:10040000B8010E2C02C0759567950A94E2F76170E9
:10041000F60181916F010E94DC00FFEFEF1AFF0AE5
:1004200088E0E816F10461F7CE01DF91CF911F91CA
:100430000F91FF90EF90DF90CF900C949E01B80148
:1004400084E0759567958A95E1F7CE010E94B40125
:100450006F2DCE01DF91CF911F910F91FF90EF9003
:10046000DF90CF900C94B40141E00E94E10181E063
:1004700090E0089540E00C94E101643008F063E0FE
:1004800090919601691710F06FEF690FE62FF0E079
:10049000ED57FE4F9489682F690F606883E891E0FB
:1004A0000C943A0261E00E943A028BE39FE10197CB
:1004B000F1F70895EF92FF920F931F93CF93DF937D
:1004C000EC01623018F08F8588608F876B8B1C8AF7
:1004D00080E48D8B80E18E8B80E58F8B8C810E94F8
:1004E00087008D818F3F11F00E9487008E810E94CE
:1004F00087007E0187E0E80EF11C00E010E08F85A8
:1005000084FD03C084E090E002C088E090E008171A
:10051000190744F4F70181917F010E9487000F5F62
:100520001F4FEDCF8BE39DE00197F1F760E08C81E9
:100530000E94DC0060E08E810E94DC008D818F3F94
:1005400019F060E00E94DC006F8564FD1DC063E06F
:10055000CE010E94B4010BE416E4C8010197F1F743
:1005600063E0CE010E94B401C8010197F1F763E096
:10057000CE010E94B40183E592E00197F1F762E0B9
:10058000CE010E94B40116C06062CE010E943A0200
:100590008BE496E40197F1F76F856062CE010E94CB
:1005A0003A0283E592E00197F1F76F856062CE0130
:1005B0000E943A026F856062CE010E943A0284E096
:1005C000888B6CE0CE010E943A02CE010E9452025A
:1005D00082E0898B66E0CE01DF91CF911F910F9170
:1005E000FF90EF900C943A02009769F0FC010190A3
:1005F0000020E9F73197AF01481B590BBC0183E894
:1006000091E00C94B10080E090E008958F929F9269
:10061000AF92BF920F931F93CF93DF93CDB7DEB707
:10062000A1970FB6F894DEBF0FBECDBF19A242301E
:1006300008F44AE08E010F5D1F4F842E912CA12CEF
:10064000B12CA50194010E948A08E62FB901CA01C4
:1006500001501109EA3014F4E05D01C0E95CD801F1
:10066000EC93232B242B252B61F7C8010E94F40265
:10067000A1960FB6F894DEBF0FBECDBFDF91CF912C
:100680001F910F91BF90AF909F908F9008958F9280
:100690009F92AF92BF92CF92DF92EF92FF92CF9351
:1006A000DF936B017C019B01AC010E9485088823CC
:1006B00019F088E091E027C046015701E894B7F8A7
:1006C0002FEF3FEF4FE75FE7C501B4010E948508B8
:1006D00081110DC02FEF3FEF4FE75FE7C501B40178
:1006E0000E94BB0618161CF48CE091E00CC02FEFA2
:1006F0003FEF4FE75FE4C701B6010E9413081816E9
:1007000074F480E191E0DF91CF91FF90EF90DF9062
:10071000CF90BF90AF909F908F900C94F4022FEFEA
:100720003FEF4FE75FECC701B6010E94BB0687FDB4
:10073000E8CF20E030E0A901C701B6010E94BB0666
:1007400087FF09C08DE20E94A600EC01F7FAF09441
:10075000F7F8F09402C0C0E0D0E02AE037ED43EAB9
:100760005BE3C701B6010E944F064B015C010E948A
:1007700032076B017C010E9461079B01AC01C5013E
:10078000B4010E944E064B015C014AE0C701B6016C
:100790000E940603C80FD91F8EE20E94A600C80F50
:1007A000D91F20E030E040E251E4C501B4010E94CD
:1007B00018084B015C010E9432076B01E12CF12CFF
:1007C0004AE0C701B6010E940603C80FD91FC7013E
:1007D000B6010E9461079B01AC01C501B4010E94F2
:1007E0004E0620E030E040E251E40E9418080E94EA
:1007F000320780E090E04AE00E9406038C0F9D1FC4
:10080000DF91CF91FF90EF90DF90CF90BF90AF90AE
:100810009F908F9008950E94B2081F920F920FB67A
:100820000F9211242F933F938F939F93AF93BF9376
:100830008091630190916401A0916501B09166017E
:100840003091620123E0230F2D3720F40196A11D82
:10085000B11D05C026E8230F0296A11DB11D2093EE
:1008600062018093630190936401A0936501B0934A
:1008700066018091670190916801A0916901B09132
:100880006A010196A11DB11D8093670190936801D3
:10089000A0936901B0936A01BF91AF919F918F912D
:1008A0003F912F910F900FBE0F901F901895789445
:1008B00084B5826084BD84B5816084BD85B5826065
:1008C00085BD85B5816085BD80916E008160809316
:1008D0006E0010928100809181008260809381007F
:1008E000809181008160809381008091800081608F
:1008F000809380008091B10084608093B1008091EA
:10090000B00081608093B00080917A008460809311
:100910007A0080917A00826080937A0080917A00D8
:10092000816080937A0080917A00806880937A0059
:100930001092C10085E00E94870084E00E94870039
:1009400083E00E94870082E00E94870062E083E8E3
:1009500091E00E945A0260E083E00E943D0284E13F
:1009600091E00E94F40281E090E0909382018093F4
:100970008101C0918101D0918201C431D1058CF4F3
:1009800068E183E891E00E943A0266E970E080E065
:1009900090E00E9464012196D0938201C09381016E
:1009A000E8CF83E891E00E94520260E081E00E947B
:1009B0003D0284E391E00E94F40261E083E00E9442
:1009C0003D0284E491E00E94F40281E090E0909383
:1009D000820180938101C0918101D0918201C33055
:1009E000D105F4F561E084E00E94DC006AEF70E07C
:1009F00080E090E00E94640160E084E00E94DC00FE
:100A000061E083E00E94DC006AEF70E080E090E04B
:100A10000E94640160E083E00E94DC0061E082E00B
:100A20000E94DC006AEF70E080E090E00E946401C8
:100A300060E082E00E94DC0061E085E00E94DC0072
:100A400069E170E080E090E00E94640160E085E090
:100A50000E94DC002196D0938201C0938101BBCF1C
:100A6000C0E0D0E001E010E010938201009381012A
:100A7000E0908101F090820183E0E816F104E4F453
:100A800061E083E00E94DC006AE070E080E090E0DA
:100A90000E94640160E083E00E94DC0064E670E094
:100AA00080E090E00E9464018FEFE81AF80AF0926B
:100AB0008201E0928101DCCF83E891E00E94520242
:100AC0008FE00E9428019093800180937F01BC01F8
:100AD000990F880B990B0E94630720E030E040EAF1
:100AE00050E40E94180820E030E040E85AE30E94F9
:100AF000180860937B0170937C0180937D01909333
:100B00007E012DEC3CEC4CE45EE30E94C006609359
:100B10007701709378018093790190937A0160E076
:100B200080E00E943D0281E591E00E94F402609124
:100B30007701709178018091790190917A010E94FA
:100B4000470387E591E00E94F40281E10E942801B9
:100B50009093760180937501BC01990F880B990BD6
:100B60000E94630720E030E040E85AE30E94180842
:100B700020E030E44CE955E40E94180860937101CC
:100B800070937201809373019093740120E030E4BC
:100B90004CE155E40E944E0620E030E049E353E486
:100BA0000E94C00620E030E04AE754E40E941808A2
:100BB0006B017C0120E030E0A9010E9413081816A7
:100BC00024F0F7FAF094F7F8F094C0926D01D09207
:100BD0006E01E0926F01F092700161E080E00E948E
:100BE0003D0289E591E00E94F40260916D017091EF
:100BF0006E0180916F01909170010E9447038FE513
:100C000091E00E94F40260E08DE00E943D02C090FD
:100C10006B01D0906C018FEFC81AD80AD0926C018A
:100C2000C0926B010D2C000CEE08FF08F7FE0CC003
:100C30008DE20E94A60066277727CB016C197D09FB
:100C40008E099F094AE003C04AE0C701B6010E942D
:100C50000603209709F408CF0E94000005CFE3E8BF
:100C6000F1E01382128284E091E0918380838CE032
:100C700084838FEF85838BE0868389E0878388E098
:100C8000808787E0818786E08287138614861586B1
:100C90001686178661E0CF010C945A025058BB2784
:100CA000AA270E9466060C94D9070E94CB0738F049
:100CB0000E94D20720F039F49F3F19F426F40C94D7
:100CC000C8070EF4E095E7FB0C94C207E92F0E94D9
:100CD000EA0758F3BA17620773078407950720F0ED
:100CE00079F4A6F50C940C080EF4E0950B2EBA2FAF
:100CF000A02D0B01B90190010C01CA01A001112422
:100D0000FF27591B99F0593F50F4503E68F11A16CD
:100D1000F040A22F232F342F4427585FF3CF46955E
:100D200037952795A795F0405395C9F77EF41F1680
:100D3000BA0B620B730B840BBAF09150A1F0FF0F4A
:100D4000BB1F661F771F881FC2F70EC0BA0F621F36
:100D5000731F841F48F4879577956795B795F79526
:100D60009E3F08F0B0CF9395880F08F09927EE0FBB
:100D70009795879508950E949E0708F481E008954D
:100D80000E94D4060C94D9070E94D20758F00E9402
:100D9000CB0740F029F45F3F29F00C94C2075111B2
:100DA0000C940D080C94C8070E94EA0768F3992375
:100DB000B1F3552391F3951B550BBB27AA27621757
:100DC0007307840738F09F5F5F4F220F331F441F64
:100DD000AA1FA9F335D00E2E3AF0E0E832D0915098
:100DE0005040E695001CCAF72BD0FE2F29D0660F85
:100DF000771F881FBB1F261737074807AB07B0E8C8
:100E000009F0BB0B802DBF01FF2793585F4F3AF0CD
:100E10009E3F510578F00C94C2070C940D085F3F7B
:100E2000E4F3983ED4F3869577956795B795F79553
:100E30009F5FC9F7880F911D9695879597F908953B
:100E4000E1E0660F771F881FBB1F621773078407D7
:100E5000BA0720F0621B730B840BBA0BEE1F88F7E6
:100E6000E09508950E94F20788F09F5798F0B92FF7
:100E70009927B751B0F0E1F0660F771F881F991FCF
:100E80001AF0BA95C9F714C0B13091F00E940C085D
:100E9000B1E008950C940C08672F782F8827B85F6D
:100EA00039F0B93FCCF3869577956795B395D9F727
:100EB0003EF490958095709561957F4F8F4F9F4F31
:100EC0000895E89409C097FB3EF49095809570953D
:100ED00061957F4F8F4F9F4F9923A9F0F92F96E986
:100EE000BB279395F695879577956795B795F111FB
:100EF000F8CFFAF4BB0F11F460FF1BC06F5F7F4F98
:100F00008F4F9F4F16C0882311F096E911C07723A9
:100F100021F09EE8872F762F05C0662371F096E8B2
:100F2000862F70E060E02AF09A95660F771F881F81
:100F3000DAF7880F9695879597F90895990F000825
:100F4000550FAA0BE0E8FEEF16161706E807F9079B
:100F5000C0F012161306E407F50798F0621B730B36
:100F6000840B950B39F40A2661F0232B242B252BB7
:100F700021F408950A2609F4A140A6958FEF811D5A
:100F8000811D089597F99F6780E870E060E00895FB
:100F90009FEF80EC089500240A9416161706180691
:100FA0000906089500240A9412161306140605066D
:100FB0000895092E0394000C11F4882352F0BB0FFE
:100FC00040F4BF2B11F460FF04C06F5F7F4F8F4F61
:100FD0009F4F089557FD9058440F551F59F05F3F9C
:100FE00071F04795880F97FB991F61F09F3F79F04B
:100FF00087950895121613061406551FF2CF4695CD
:10100000F1DF08C0161617061806991FF1CF86954E
:101010007105610508940895E894BB276627772732
:10102000CB0197F908950E949E0708F48FEF089569
:101030000E942B080C94D9070E94CB0738F00E941D
:10104000D20720F0952311F00C94C2070C94C80726
:1010500011240C940D080E94EA0770F3959FC1F3C8
:10106000950F50E0551F629FF001729FBB27F00D56
:10107000B11D639FAA27F00DB11DAA1F649F6627AB
:10108000B00DA11D661F829F2227B00DA11D621FFA
:10109000739FB00DA11D621F839FA00D611D221FB4
:1010A000749F3327A00D611D231F849F600D211D98
:1010B000822F762F6A2F11249F5750409AF0F1F01B
:1010C00088234AF0EE0FFF1FBB1F661F771F881F84
:1010D00091505040A9F79E3F510580F00C94C207F3
:1010E0000C940D085F3FE4F3983ED4F38695779512
:1010F0006795B795F795E7959F5FC1F7FE2B880F2A
:10110000911D9695879597F908950E949E07880BE3
:10111000990B0895A1E21A2EAA1BBB1BFD010DC05D
:10112000AA1FBB1FEE1FFF1FA217B307E407F50797
:1011300020F0A21BB30BE40BF50B661F771F881F73
:10114000991F1A9469F760957095809590959B0109
:10115000AC01BD01CF010895EE0FFF1F0590F49182
:10116000E02D099481E090E0F8940C94B708F8948D
:02117000FFCFAF
:10117200000000003402B1006E616E00696E66000C
:101182006F766600456C656374726963616C2050AA
:101192006572666F726D616E636520416E616C7916
:1011A20073657200496E697469616C697A696E6708
:1011B2002E2E2E00476C6F77696E67204C45447364
:1011C20000566C74673D00560043726E743D006DAC
:0211D2004100DA
:00000001FF
