:100000000C945D000C9485000C9485000C94850084
:100010000C9485000C9485000C9485000C9485004C
:100020000C9485000C9485000C9485000C9485003C
:100030000C9485000C9485000C9485000C9485002C
:100040000C9412040C9485000C9485000C9485008B
:100050000C9485000C9485000C9485000C9485000C
:100060000C9485000C94850000000008000201003B
:100070000003040700000000000000000000000072
:10008000250028002B0000000000240027002A0083
:10009000040404040404040402020202020203032E
:1000A0000303030301020408102040800102040836
:1000B0001020010204081020E10711241FBECFEF19
:1000C000D8E0DEBFCDBF12E0A0E0B1E0EAE8F5E1A4
:1000D00002C005900D92A032B107D9F722E0A0E24C
:1000E000B2E001C01D92A135B207E1F710E0CDE505
:1000F000D0E004C02197FE010E94B80ACC35D10798
:10010000C9F70E945C040C94C30A0C94000090E0B0
:10011000FC01EC55FF4F2491FC01E057FF4F849107
:10012000882399F090E0880F991FFC01EA57FF4F50
:10013000A591B491FC01E458FF4F859194918FB73C
:10014000F894EC91E22BEC938FBF0895CF92DF925D
:10015000EF92FF920F931F93CF93DF936C017A017D
:100160008B01C0E0D0E0CE15DF0589F0D8016D919C
:100170008D01D601ED91FC910190F081E02DC60139
:100180000995892B11F47E0102C02196ECCFC7019D
:10019000DF91CF911F910F91FF90EF90DF90CF9063
:1001A000089590E0FC01E859FF4F3491FC01EC55B3
:1001B000FF4F2491FC01E057FF4FE491EE2309F437
:1001C0003BC0332339F1333091F038F43130A9F0AA
:1001D000323001F584B58F7D12C0373091F0383060
:1001E000A1F03430B9F4809180008F7D03C08091FC
:1001F00080008F77809380000DC084B58F7784BD99
:1002000009C08091B0008F7703C08091B0008F7DCE
:100210008093B000F0E0EE0FFF1FE458FF4FA59170
:10022000B4918FB7F894EC91611103C020952E23FF
:1002300001C02E2B2C938FBF08958E3008F08E5066
:100240008770806480937C0080917A0080648093C2
:100250007A0080917A0086FDFCCF80917800209111
:10026000790090E0922B08953FB7F8948091250291
:1002700090912602A0912702B091280226B5A89B52
:1002800005C02F3F19F00196A11DB11D3FBFBA2F28
:10029000A92F982F8827820F911DA11DB11DBC0188
:1002A000CD0142E0660F771F881F991F4A95D1F74D
:1002B00008958F929F92AF92BF92CF92DF92EF926A
:1002C000FF926B017C010E9434014B015C01C1145F
:1002D000D104E104F104F1F00E943401DC01CB010E
:1002E00088199909AA09BB09883E9340A105B1055F
:1002F00070F321E0C21AD108E108F10888EE880EF7
:1003000083E0981EA11CB11CC114D104E104F104C6
:1003100019F7DDCFFF90EF90DF90CF90BF90AF90B7
:100320009F908F900895CF93DF93EC0160E08E81D2
:100330000E94D10061E08E810E94D10060E08E8138
:100340000E94D1008BE891E00197F1F7DF91CF9106
:100350000895CF92DF92EF92FF920F931F93CF9366
:10036000DF937C016C0187E0C80ED11CC0E0D0E0B7
:10037000062F10E0B8010C2E02C0759567950A94FF
:10038000E2F76170F60181916F010E94D100219620
:10039000C430D10579F7C701DF91CF911F910F913B
:1003A000FF90EF90DF90CF900C949301CF92DF926B
:1003B000EF92FF920F931F93CF93DF93EC01F62EF2
:1003C000642F8C810E94D1008D818F3F19F060E0F5
:1003D0000E94D1008F850F2D10E084FF25C06E0193
:1003E00087E0C80ED11CE12CF12CB8010E2C02C004
:1003F000759567950A94E2F76170F60181916F0136
:100400000E94D100FFEFEF1AFF0A88E0E816F1041E
:1004100061F7CE01DF91CF911F910F91FF90EF9087
:10042000DF90CF900C949301B80184E075956795A7
:100430008A95E1F7CE010E94A9016F2DCE01DF91CF
:10044000CF911F910F91FF90EF90DF90CF900C9480
:10045000A90141E00E94D60181E090E0089540E0CA
:100460000C94D601843008F083E090914C028917F7
:1004700010F08FEF890FE82FF0E0E75CFD4F648903
:10048000606889E392E00C942F0261E00E942F02E1
:100490008BE39FE10197F1F70895EF92FF920F939D
:1004A0001F93CF93DF93EC01623018F08F85886043
:1004B0008F876B8B1C8A80E48D8B80E18E8B80E52F
:1004C0008F8B8C810E9487008D818F3F11F00E945D
:1004D00087008E810E9487007E0187E0E80EF11C74
:1004E00000E010E08F8584FD03C084E090E002C04E
:1004F00088E090E00817190744F4F70181917F0123
:100500000E9487000F5F1F4FEDCF8BE39DE00197A7
:10051000F1F760E08C810E94D10060E08E810E9442
:10052000D1008D818F3F19F060E00E94D1006F856E
:1005300064FD1DC063E0CE010E94A9010BE416E436
:10054000C8010197F1F763E0CE010E94A901C8013B
:100550000197F1F763E0CE010E94A90183E592E0E3
:100560000197F1F762E0CE010E94A90116C0606216
:10057000CE010E942F028BE496E40197F1F76F857C
:100580006062CE010E942F0283E592E00197F1F7AD
:100590006F856062CE010E942F026F856062CE017E
:1005A0000E942F0284E0888B6CE0CE010E942F0213
:1005B000CE010E94450282E0898B66E0CE01DF9188
:1005C000CF911F910F91FF90EF900C942F02009705
:1005D00069F0FC0101900020E9F73197AF01481B59
:1005E000590BBC0189E392E00C94A60080E090E0F6
:1005F00008950C94E7028F929F92AF92BF920F934F
:100600001F93CF93DF93CDB7DEB7A1970FB6F894C2
:10061000DEBF0FBECDBF19A2423008F44AE08E0102
:100620000F5D1F4F842E912CA12CB12CA50194019C
:100630000E94960AE62FB901CA0101501109EA3059
:1006400014F4E05D01C0E95CD801EC93232B242B6A
:10065000252B61F7C8010E94E702A1960FB6F89416
:10066000DEBF0FBECDBFDF91CF911F910F91BF9025
:10067000AF909F908F9008958F929F92AF92BF926C
:10068000CF92DF92EF92FF92CF93DF936B017C01C9
:100690009B01AC010E947C0A882319F088E091E05C
:1006A00027C046015701E894B7F82FEF3FEF4FE717
:1006B0005FE7C501B4010E947C0A81110DC02FEFD4
:1006C0003FEF4FE75FE7C501B4010E946C081816C1
:1006D0001CF48CE091E00CC02FEF3FEF4FE75FE49C
:1006E000C701B6010E94C409181674F480E191E0B4
:1006F000DF91CF91FF90EF90DF90CF90BF90AF90C0
:100700009F908F900C94E7022FEF3FEF4FE75FEC45
:10071000C701B6010E946C0887FDE8CF20E030E0F9
:10072000A901C701B6010E946C0887FF11C0E091C2
:100730003902F0913A020190F081E02D6DE289E3F7
:1007400092E00995EC01F7FAF094F7F8F09402C002
:10075000C0E0D0E02AE037ED43EA5BE3C701B60131
:100760000E9400084B015C010E94E3086B017C01C0
:100770000E9412099B01AC01C501B4010E94FF0750
:100780004B015C014AE0C701B6010E94FB02C80FA1
:10079000D91FE0913902F0913A020190F081E02DE9
:1007A0006EE289E392E00995C80FD91F20E030E09E
:1007B00040E251E4C501B4010E94C9094B015C014A
:1007C0000E94E3086B01E12CF12C4AE0C701B6015D
:1007D0000E94FB02C80FD91FC701B6010E9412096F
:1007E0009B01AC01C501B4010E94FF0720E030E08D
:1007F00040E251E40E94C9090E94E30880E090E0D1
:100800004AE00E94FB028C0F9D1FDF91CF91FF9069
:10081000EF90DF90CF90BF90AF909F908F90089512
:100820000E94BE0A1F920F920FB60F9211242F93AF
:100830003F938F939F93AF93BF93809121029091A9
:100840002202A0912302B09124023091200223E0E1
:10085000230F2D3720F40196A11DB11D05C026E8F8
:10086000230F0296A11DB11D209320028093210227
:1008700090932202A0932302B09324028091250238
:1008800090912602A0912702B09128020196A11D05
:10089000B11D8093250290932602A0932702B09366
:1008A0002802BF91AF919F918F913F912F910F900F
:1008B0000FBE0F901F901895789484B5826084BD08
:1008C00084B5816084BD85B5826085BD85B5816054
:1008D00085BD80916E00816080936E0010928100D2
:1008E000809181008260809381008091810081608D
:1008F000809381008091800081608093800080914E
:10090000B10084608093B1008091B00081608093D9
:10091000B00080917A00846080937A0080917A00A0
:10092000826080937A0080917A00816080937A005F
:1009300080917A00806880937A001092C10088E0EC
:100940000E94870089E00E9487008AE00E94870059
:100950008BE00E9487008CE00E9487008DE00E945F
:10096000870060E088E00E94D10060E089E00E949A
:10097000D10060E08AE00E94D10060E08BE00E943C
:10098000D10060E08CE00E94D10060E08DE00E9428
:10099000D10062E089E392E00E944D0280E00E9473
:1009A000320284E191E00E94F90281E00E94320269
:1009B00082E291E00E94F9026CED75E080E090E047
:1009C0000E94590161E088E00E94D10061E089E065
:1009D0000E94D10061E08AE00E94D10089E392E0A8
:1009E0000E94450280E0882E80E0982EC1E0D0E091
:1009F0000E9434016B017C0120E9C21A21E0D20A75
:100A0000E108F10800E010E0412C512C32010A3FCE
:100A1000110551F10E943401DC01CB018C199D09B3
:100A2000AE09BF0980399140A105B10580F38EE080
:100A30000E941D019C012E5F3140229FC001239F17
:100A4000900D900D1124092E000CAA0BBB0B480E23
:100A5000591E6A1E7B1E0F5F1F4F80E9C80E81E082
:100A6000D81EE11CF11CD3CFC301B2010E941209B0
:100A700020E030E04AE753E40E9471080E943C0AFB
:100A800024EE33E847E95DE30E94C9092091310271
:100A90003091320240913302509134020E9400089A
:100AA00020E030E040E251E40E94710821EE3AE794
:100AB0004CE950E40E94C9096093310270933202FC
:100AC000809333029093340280E00E94320280E3EC
:100AD00091E00E94F902609131027091320280919E
:100AE0003302909134020E943C0368EC70E080E095
:100AF00090E00E94590123EC35EF48EC5FE36091F0
:100B000031027091320280913302909134020E943E
:100B1000C409181664F589E392E00E94450260E07A
:100B20008BE00E94D10060E088E00E94D10060E08C
:100B300089E00E94D10060E08AE00E94D10080E05C
:100B40000E94320289E391E00E94F90281E00E9452
:100B5000320289E491E00E94F90268E873E180E0E2
:100B600090E00E94590110922E0210922D0221EE67
:100B70003AE744E55FE3609131027091320280917F
:100B80003302909134020E946C0887FF21C060E01C
:100B90008BE00E94D10061E088E00E94D10061E01A
:100BA00089E00E94D10061E08AE00E94D10081E0EA
:100BB0000E94320288E591E00E94F90268EC70E040
:100BC00080E090E00E945901D0932E02C0932D0244
:100BD000C0903102D0903202E0903302F0903402A3
:100BE0002DEC3CEC4CE45FE3C701B6010E94C40964
:100BF0001816C4F526E636E646EA5FE3C701B601F5
:100C00000E946C0887FF2EC089E392E00E94450293
:100C100060E08AE00E94D10064E670E080E090E04D
:100C20000E94590110922C0210922B0210922A025B
:100C30001092290280E00E94320289E691E00E942F
:100C4000F90281E00E94320287E791E00E94F902F6
:100C500060ED77E080E090E00E94590110922E0252
:100C600010922D02C0903102D0903202E0903302F7
:100C7000F090340226E636E646EA5FE3C701B601A5
:100C80000E94C4091816CCF520E030E040EC5FE388
:100C9000C701B6010E946C0887FF2FC0809129020E
:100CA00090912A02892B01F589E392E00E94450286
:100CB00080E00E94320287E891E00E94F90281E020
:100CC0000E94320288E991E00E94F902D0932A0240
:100CD000C093290260ED77E080E090E00E94590126
:100CE00010922E0210922D0280912B0290912C02D4
:100CF000019690932C0280932B0280912B0290916D
:100D00002C028837910509F0BAC089E392E00E946D
:100D1000450280E00E94320286EA91E00E94F902D8
:100D200081E00E94320287EB91E00E94F90260E0CC
:100D300089E00E94D1000AE010E068EE73E080E0F4
:100D400090E00E9459010E9434016B017C0120E96E
:100D5000C21A21E0D20AE108F108A12CB12C412CE1
:100D6000512C32018AEFA816B10451F10E943401CE
:100D7000DC01CB018C199D09AE09BF098039914076
:100D8000A105B10578F38EE00E941D018E5F9140B0
:100D9000889F9001899F300D300D1124C901330FB8
:100DA000AA0BBB0B480E591E6A1E7B1E8FEFA81A9A
:100DB000B80A20E9C20E21E0D21EE11CF11CD2CFFC
:100DC000C301B2010E94120920E030E04AE753E477
:100DD0000E9471080E943C0A24EE33E847E95DE373
:100DE0000E94C909209131023091320240913302B0
:100DF000509134020E94000820E030E040E251E4CB
:100E00000E94710821EE3AE74CE950E40E94C909BA
:100E100060933102709332028093330290933402D4
:100E200080E00E94320280E391E00E94F90260912A
:100E300031027091320280913302909134020E940B
:100E40003C0368EC70E080E090E00E945901109251
:100E50003102109232021092330210923402D09377
:100E60003002C0932F020150110909F066CF109291
:100E70002C0210922B0210922E0210922D02109230
:100E80003102109232021092330210923402D09347
:100E90003002C0932F028FE00E941D01893522E0AD
:100EA00092070CF458C08091370290913802892B38
:100EB00041F589E392E00E94450280E00E943202FF
:100EC00083EC91E00E94F90281E00E94320280ED01
:100ED00091E00E94F90261E08CE00E94D10061E0A3
:100EE0008DE00E94D100D0933802C093370260EDAC
:100EF00077E080E090E00E94590189E392E00E944F
:100F00004502809135029091360201969093360207
:100F1000809335028B34910509F04CC089E392E04F
:100F20000E94450280E00E9432028FED91E00E9413
:100F3000F90281E00E9432028FEE91E00E94F902F4
:100F400060E08DE00E94D10060ED77E080E090E00D
:100F50000E94590127C08039914064F589E392E0ED
:100F60000E94450280E00E94320280E092E00E94EE
:100F7000F90281E00E9432028DE092E00E94F902C3
:100F800060E08DE00E94D10060ED77E080E090E0CD
:100F90000E94590160E08CE00E94D100109238025A
:100FA00010923702109236021092350289E392E0D5
:100FB0000E9445028114910409F41ACD0E94000098
:100FC00017CDE9E3F2E01382128284E091E091838D
:100FD000808385E084838FEF858384E0868383E04C
:100FE000878382E0808781E081871286138614865A
:100FF00015861686178661E0CF010C944D02505875
:10100000BB27AA270E9417080C948A090E947C0912
:1010100038F00E94830920F039F49F3F19F426F438
:101020000C9479090EF4E095E7FB0C947309E92F11
:101030000E949B0958F3BA17620773078407950744
:1010400020F079F4A6F50C94BD090EF4E0950B2E72
:10105000BA2FA02D0B01B90190010C01CA01A0010A
:101060001124FF27591B99F0593F50F4503E68F165
:101070001A16F040A22F232F342F4427585FF3CFA6
:10108000469537952795A795F0405395C9F77EF477
:101090001F16BA0B620B730B840BBAF09150A1F0C0
:1010A000FF0FBB1F661F771F881FC2F70EC0BA0F46
:1010B000621F731F841F48F4879577956795B795CE
:1010C000F7959E3F08F0B0CF9395880F08F09927C9
:1010D000EE0F9795879508950E944F0908F481E0D7
:1010E00008950E9485080C948A090E94830958F08B
:1010F0000E947C0940F029F45F3F29F00C947309A9
:1011000051110C94BE090C9479090E949B0968F353
:101110009923B1F3552391F3951B550BBB27AA27B0
:1011200062177307840738F09F5F5F4F220F331FEA
:10113000441FAA1FA9F335D00E2E3AF0E0E832D0B2
:1011400091505040E695001CCAF72BD0FE2F29D0B5
:10115000660F771F881FBB1F261737074807AB0787
:10116000B0E809F0BB0B802DBF01FF2793585F4FFC
:101170003AF09E3F510578F00C9473090C94BE0927
:101180005F3FE4F3983ED4F3869577956795B795DE
:10119000F7959F5FC9F7880F911D9695879597F9E9
:1011A0000895E1E0660F771F881FBB1F6217730762
:1011B0008407BA0720F0621B730B840BBA0BEE1F77
:1011C00088F7E09508950E94A30988F09F5798F04A
:1011D000B92F9927B751B0F0E1F0660F771F881F3C
:1011E000991F1AF0BA95C9F714C0B13091F00E9456
:1011F000BD09B1E008950C94BD09672F782F8827A9
:10120000B85F39F0B93FCCF3869577956795B3957C
:10121000D9F73EF490958095709561957F4F8F4FEB
:101220009F4F0895E89409C097FB3EF490958095F0
:10123000709561957F4F8F4F9F4F9923A9F0F92F9C
:1012400096E9BB279395F695879577956795B7951A
:10125000F111F8CFFAF4BB0F11F460FF1BC06F5F00
:101260007F4F8F4F9F4F16C0882311F096E911C012
:10127000772321F09EE8872F762F05C0662371F033
:1012800096E8862F70E060E02AF09A95660F771F47
:10129000881FDAF7880F9695879597F90895990F23
:1012A0000008550FAA0BE0E8FEEF16161706E80730
:1012B000F907C0F012161306E407F50798F0621B51
:1012C000730B840B950B39F40A2661F0232B242B26
:1012D000252B21F408950A2609F4A140A6958FEF45
:1012E000811D811D089597F99F6780E870E060E097
:1012F00008959FEF80EC089500240A9416161706AF
:1013000018060906089500240A94121613061406F6
:1013100005060895092E0394000C11F4882352F059
:10132000BB0F40F4BF2B11F460FF04C06F5F7F4F11
:101330008F4F9F4F089557FD9058440F551F59F0F8
:101340005F3F71F04795880F97FB991F61F09F3FB2
:1013500079F087950895121613061406551FF2CFDB
:101360004695F1DF08C0161617061806991FF1CF2B
:1013700086957105610508940895E894BB27662752
:101380007727CB0197F908950E944F0908F48FEF52
:1013900008950E94DC090C948A090E947C0938F0A7
:1013A0000E94830920F0952311F00C9473090C948A
:1013B000790911240C94BE090E949B0970F3959F32
:1013C000C1F3950F50E0551F629FF001729FBB273C
:1013D000F00DB11D639FAA27F00DB11DAA1F649FD8
:1013E0006627B00DA11D661F829F2227B00DA11D8B
:1013F000621F739FB00DA11D621F839FA00D611D11
:10140000221F749F3327A00D611D231F849F600D31
:10141000211D822F762F6A2F11249F5750409AF05A
:10142000F1F088234AF0EE0FFF1FBB1F661F771FE6
:10143000881F91505040A9F79E3F510580F00C94B1
:1014400073090C94BE095F3FE4F3983ED4F386958C
:1014500077956795B795F795E7959F5FC1F7FE2B51
:10146000880F911D9695879597F9089519F416F4AC
:101470000C9479090C94810A0E94A309B8F399236A
:10148000C9F3B6F39F57550B87FF0E948F0A0024BC
:10149000A0E640EA900180585695979528F4805C24
:1014A000660F771F881F20F026173707480730F48C
:1014B000621B730B840B202931294A2BA6951794A4
:1014C0000794202531254A2758F7660F771F881F74
:1014D00020F026173707480730F4620B730B840B94
:1014E000200D311D411DA09581F7B901842F915820
:1014F000880F9695879508950E944F09880B990B40
:1015000008959F3F31F0915020F487957795679526
:10151000B795880F911D9695879597F908959150E5
:101520005040660F771F881FD2F70895A1E21A2E48
:10153000AA1BBB1BFD010DC0AA1FBB1FEE1FFF1F77
:10154000A217B307E407F50720F0A21BB30BE40BC7
:10155000F50B661F771F881F991F1A9469F760950E
:101560007095809590959B01AC01BD01CF010895C8
:10157000EE0FFF1F0590F491E02D099481E090E0BB
:0A158000F8940C94C30AF894FFCF0E
:10158A00000000002902A6006E616E00696E660006
:10159A006F766600202044656D616E64205369642D
:1015AA0065002020204D616E6167656D656E74006F
:1015BA0044656D616E64203D005368757420446F04
:1015CA00776E2064756520320020537973204F7638
:1015DA006572204C6F6164002020204E6F726D612D
:1015EA006C204C6F6164202000204167726920667C
:1015FA0065656465722000536875742044776E20AF
:10160A00746F204D504C005375737461696E61623A
:10161A006C65204C6F616400536E64204D736720C3
:10162A00322048454300434232204D616C6C2042CF
:10163A007265616B6572004F666620746F204D5348
:10164A00504C00476F6F64204576656E696E67007F
:10165A005374204C69676874205377204F4E0053A7
:10166A006F6D6520534C20262048204F46460020A7
:10167A0032207265642042617365204C6F61640098
:10168A00476F6F64204D6F726E696E6700537420E6
:10169A004C69676874205475726E204F4646000084
:00000001FF
